{
  "contractName": "TokenSales",
  "abi": [
    {
      "constant": true,
      "inputs": [],
      "name": "nftAddress",
      "outputs": [
        {
          "name": "",
          "type": "address"
        }
      ],
      "payable": false,
      "stateMutability": "view",
      "type": "function"
    },
    {
      "constant": true,
      "inputs": [
        {
          "name": "",
          "type": "uint256"
        }
      ],
      "name": "tokenPrice",
      "outputs": [
        {
          "name": "",
          "type": "uint256"
        }
      ],
      "payable": false,
      "stateMutability": "view",
      "type": "function"
    },
    {
      "inputs": [
        {
          "name": "_tokenAddress",
          "type": "address"
        }
      ],
      "payable": false,
      "stateMutability": "nonpayable",
      "type": "constructor"
    },
    {
      "constant": false,
      "inputs": [
        {
          "name": "_tokenId",
          "type": "uint256"
        },
        {
          "name": "_price",
          "type": "uint256"
        }
      ],
      "name": "setForSale",
      "outputs": [],
      "payable": false,
      "stateMutability": "nonpayable",
      "type": "function"
    },
    {
      "constant": false,
      "inputs": [
        {
          "name": "_tokenId",
          "type": "uint256"
        }
      ],
      "name": "purchaseToken",
      "outputs": [],
      "payable": true,
      "stateMutability": "payable",
      "type": "function"
    },
    {
      "constant": false,
      "inputs": [
        {
          "name": "tokenIds",
          "type": "uint256[]"
        }
      ],
      "name": "removeTokenOnSale",
      "outputs": [],
      "payable": false,
      "stateMutability": "nonpayable",
      "type": "function"
    },
    {
      "constant": false,
      "inputs": [
        {
          "name": "_tokenId",
          "type": "uint256"
        },
        {
          "name": "_price",
          "type": "uint256"
        }
      ],
      "name": "setForSaleEach",
      "outputs": [],
      "payable": false,
      "stateMutability": "nonpayable",
      "type": "function"
    },
    {
      "constant": false,
      "inputs": [
        {
          "name": "_tokenId",
          "type": "uint256"
        }
      ],
      "name": "removeTokenOnSaleEach",
      "outputs": [],
      "payable": false,
      "stateMutability": "nonpayable",
      "type": "function"
    }
  ],
  "bytecode": "0x608060405234801561001057600080fd5b5060405160208061119d8339810180604052602081101561003057600080fd5b8101908080519060200190929190505050806000806101000a81548173ffffffffffffffffffffffffffffffffffffffff021916908373ffffffffffffffffffffffffffffffffffffffff1602179055505061110c806100916000396000f3fe6080604052600436106100705760003560e01c80636ca78ed71161004e5780636ca78ed7146101d6578063c2db2c421461021b578063d4ddce8a14610249578063fc63f3ef1461029857610070565b806317fcfe221461007557806350bc3605146100ba5780635bf8633a1461017f575b600080fd5b34801561008157600080fd5b506100b86004803603604081101561009857600080fd5b8101908080359060200190929190803590602001909291905050506102d3565b005b3480156100c657600080fd5b5061017d600480360360208110156100dd57600080fd5b81019080803590602001906401000000008111156100fa57600080fd5b82018360208201111561010c57600080fd5b8035906020019184602083028401116401000000008311171561012e57600080fd5b919080806020026020016040519081016040528093929190818152602001838360200280828437600081840152601f19601f82011690508083019250505050505050919291929050505061061a565b005b34801561018b57600080fd5b50610194610836565b604051808273ffffffffffffffffffffffffffffffffffffffff1673ffffffffffffffffffffffffffffffffffffffff16815260200191505060405180910390f35b3480156101e257600080fd5b50610219600480360360408110156101f957600080fd5b81019080803590602001909291908035906020019092919050505061085b565b005b6102476004803603602081101561023157600080fd5b8101908080359060200190929190505050610b70565b005b34801561025557600080fd5b506102826004803603602081101561026c57600080fd5b8101908080359060200190929190505050610e93565b6040518082815260200191505060405180910390f35b3480156102a457600080fd5b506102d1600480360360208110156102bb57600080fd5b8101908080359060200190929190505050610eab565b005b60008060009054906101000a900473ffffffffffffffffffffffffffffffffffffffff1673ffffffffffffffffffffffffffffffffffffffff16636352211e846040518263ffffffff1660e01b81526004018082815260200191505060206040518083038186803b15801561034757600080fd5b505afa15801561035b573d6000803e3d6000fd5b505050506040513d602081101561037157600080fd5b810190808051906020019092919050505090503373ffffffffffffffffffffffffffffffffffffffff168173ffffffffffffffffffffffffffffffffffffffff1614610425576040517f08c379a00000000000000000000000000000000000000000000000000000000081526004018080602001828103825260198152602001807f63616c6c6572206973206e6f7420746f6b656e206f776e65720000000000000081525060200191505060405180910390fd5b6000821161049b576040517f08c379a00000000000000000000000000000000000000000000000000000000081526004018080602001828103825260168152602001807f7072696365206973207a65726f206f72206c6f7765720000000000000000000081525060200191505060405180910390fd5b6000809054906101000a900473ffffffffffffffffffffffffffffffffffffffff1673ffffffffffffffffffffffffffffffffffffffff1663e985e9c582306040518363ffffffff1660e01b8152600401808373ffffffffffffffffffffffffffffffffffffffff1673ffffffffffffffffffffffffffffffffffffffff1681526020018273ffffffffffffffffffffffffffffffffffffffff1673ffffffffffffffffffffffffffffffffffffffff1681526020019250505060206040518083038186803b15801561056d57600080fd5b505afa158015610581573d6000803e3d6000fd5b505050506040513d602081101561059757600080fd5b81019080805190602001909291905050506105fd576040517f08c379a000000000000000000000000000000000000000000000000000000000815260040180806020018281038252602f8152602001806110b2602f913960400191505060405180910390fd5b816001600085815260200190815260200160002081905550505050565b6000815111610691576040517f08c379a00000000000000000000000000000000000000000000000000000000081526004018080602001828103825260118152602001807f746f6b656e49647320697320656d70747900000000000000000000000000000081525060200191505060405180910390fd5b60008090505b81518110156108325760008282815181106106ae57fe5b6020026020010151905060008060009054906101000a900473ffffffffffffffffffffffffffffffffffffffff1673ffffffffffffffffffffffffffffffffffffffff16636352211e836040518263ffffffff1660e01b81526004018082815260200191505060206040518083038186803b15801561072c57600080fd5b505afa158015610740573d6000803e3d6000fd5b505050506040513d602081101561075657600080fd5b810190808051906020019092919050505090508073ffffffffffffffffffffffffffffffffffffffff163373ffffffffffffffffffffffffffffffffffffffff161461080a576040517f08c379a000000000000000000000000000000000000000000000000000000000815260040180806020018281038252601a8152602001807f63616c6c6572206973206e6f7420746f6b656e2073656c6c657200000000000081525060200191505060405180910390fd5b6000600160008481526020019081526020016000208190555050508080600101915050610697565b5050565b6000809054906101000a900473ffffffffffffffffffffffffffffffffffffffff1681565b60008060009054906101000a900473ffffffffffffffffffffffffffffffffffffffff1673ffffffffffffffffffffffffffffffffffffffff16636352211e846040518263ffffffff1660e01b81526004018082815260200191505060206040518083038186803b1580156108cf57600080fd5b505afa1580156108e3573d6000803e3d6000fd5b505050506040513d60208110156108f957600080fd5b810190808051906020019092919050505090503373ffffffffffffffffffffffffffffffffffffffff168173ffffffffffffffffffffffffffffffffffffffff16146109ad576040517f08c379a00000000000000000000000000000000000000000000000000000000081526004018080602001828103825260198152602001807f63616c6c6572206973206e6f7420746f6b656e206f776e65720000000000000081525060200191505060405180910390fd5b60008211610a23576040517f08c379a00000000000000000000000000000000000000000000000000000000081526004018080602001828103825260168152602001807f7072696365206973207a65726f206f72206c6f7765720000000000000000000081525060200191505060405180910390fd5b3073ffffffffffffffffffffffffffffffffffffffff166000809054906101000a900473ffffffffffffffffffffffffffffffffffffffff1673ffffffffffffffffffffffffffffffffffffffff1663081812fc856040518263ffffffff1660e01b81526004018082815260200191505060206040518083038186803b158015610aac57600080fd5b505afa158015610ac0573d6000803e3d6000fd5b505050506040513d6020811015610ad657600080fd5b810190808051906020019092919050505073ffffffffffffffffffffffffffffffffffffffff1614610b53576040517f08c379a000000000000000000000000000000000000000000000000000000000815260040180806020018281038252602f8152602001806110b2602f913960400191505060405180910390fd5b816001600085815260200190815260200160002081905550505050565b60006001600083815260200190815260200160002054905060008060009054906101000a900473ffffffffffffffffffffffffffffffffffffffff1673ffffffffffffffffffffffffffffffffffffffff16636352211e846040518263ffffffff1660e01b81526004018082815260200191505060206040518083038186803b158015610bfc57600080fd5b505afa158015610c10573d6000803e3d6000fd5b505050506040513d6020811015610c2657600080fd5b8101908080519060200190929190505050905081341015610c92576040517f08c379a00000000000000000000000000000000000000000000000000000000081526004018080602001828103825260218152602001806110916021913960400191505060405180910390fd5b8073ffffffffffffffffffffffffffffffffffffffff163373ffffffffffffffffffffffffffffffffffffffff161415610d34576040517f08c379a00000000000000000000000000000000000000000000000000000000081526004018080602001828103825260168152602001807f63616c6c657220697320746f6b656e2073656c6c65720000000000000000000081525060200191505060405180910390fd5b60008190508073ffffffffffffffffffffffffffffffffffffffff166108fc349081150290604051600060405180830381858888f19350505050158015610d7f573d6000803e3d6000fd5b506000809054906101000a900473ffffffffffffffffffffffffffffffffffffffff1673ffffffffffffffffffffffffffffffffffffffff166342842e0e8333876040518463ffffffff1660e01b8152600401808473ffffffffffffffffffffffffffffffffffffffff1673ffffffffffffffffffffffffffffffffffffffff1681526020018373ffffffffffffffffffffffffffffffffffffffff1673ffffffffffffffffffffffffffffffffffffffff1681526020018281526020019350505050600060405180830381600087803b158015610e5c57600080fd5b505af1158015610e70573d6000803e3d6000fd5b505050506000600160008681526020019081526020016000208190555050505050565b60016020528060005260406000206000915090505481565b60008111610f21576040517f08c379a000000000000000000000000000000000000000000000000000000000815260040180806020018281038252600f8152602001807f746f6b656e4964206973206e756c6c000000000000000000000000000000000081525060200191505060405180910390fd5b60008060009054906101000a900473ffffffffffffffffffffffffffffffffffffffff1673ffffffffffffffffffffffffffffffffffffffff16636352211e836040518263ffffffff1660e01b81526004018082815260200191505060206040518083038186803b158015610f9557600080fd5b505afa158015610fa9573d6000803e3d6000fd5b505050506040513d6020811015610fbf57600080fd5b810190808051906020019092919050505090508073ffffffffffffffffffffffffffffffffffffffff163373ffffffffffffffffffffffffffffffffffffffff1614611073576040517f08c379a000000000000000000000000000000000000000000000000000000000815260040180806020018281038252601a8152602001807f63616c6c6572206973206e6f7420746f6b656e2073656c6c657200000000000081525060200191505060405180910390fd5b60006001600084815260200190815260200160002081905550505056fe63616c6c65722073656e74206b6c6179206c6f776572207468616e207072696365746f6b656e206f776e657220646964206e6f7420617070726f766520546f6b656e53616c657320636f6e7472616374a165627a7a72305820c2923a16ee043089239d28b4fc129f417160816227b329d062b2bb48c6d89d8d0029",
  "source": "pragma solidity ^0.5.0;\n\nimport \"openzeppelin-solidity/contracts/token/ERC721/ERC721Full.sol\";\n\ncontract TokenSales {\n\n  ERC721Full public nftAddress;\n  mapping (uint256 => uint256) public tokenPrice;\n  \n  constructor(address _tokenAddress) public {\n    nftAddress = ERC721Full(_tokenAddress);\n  }\n\n  //nft 매도\n  function setForSale(uint256 _tokenId, uint256 _price) public {\n    address tokenOwner = nftAddress.ownerOf(_tokenId);\n    require(tokenOwner == msg.sender, \"caller is not token owner\");\n    require(_price > 0, \"price is zero or lower\");\n    require(nftAddress.isApprovedForAll(tokenOwner, address(this)), \"token owner did not approve TokenSales contract\");\n    tokenPrice[_tokenId] = _price;\n  }\n\n  //nft 매수\n  function purchaseToken(uint256 _tokenId) public payable {\n    uint256 price = tokenPrice[_tokenId];\n    address tokenSeller = nftAddress.ownerOf(_tokenId);\n    require(msg.value >= price, \"caller sent klay lower than price\");\n    require(msg.sender != tokenSeller, \"caller is token seller\");\n    address payable payableTokenSeller = address(uint160(tokenSeller));\n    payableTokenSeller.transfer(msg.value);\n    nftAddress.safeTransferFrom(tokenSeller, msg.sender, _tokenId);\n    tokenPrice[_tokenId] = 0;\n  }\n\n  //nft 매도 전체 취소 (토큰 price 0으로 초기화)\n  function removeTokenOnSale(uint256[] memory tokenIds) public {\n    require(tokenIds.length > 0, \"tokenIds is empty\");\n    for (uint i = 0; i < tokenIds.length; i++) {\n      uint256 tokenId = tokenIds[i];\n      address tokenSeller = nftAddress.ownerOf(tokenId);\n      require(msg.sender == tokenSeller, \"caller is not token seller\");\n      tokenPrice[tokenId] = 0;\n    }\n  }\n\n  //nft 매도 부분 승인\n  function setForSaleEach(uint256 _tokenId, uint256 _price) public {\n    address tokenOwner = nftAddress.ownerOf(_tokenId);\n    require(tokenOwner == msg.sender, \"caller is not token owner\");\n    require(_price > 0, \"price is zero or lower\");\n    //require(nftAddress.getApproved(_tokenId) == address(this), \"2token owner did not approve TokenSales contract\");\n    require(nftAddress.getApproved(_tokenId) == address(this), \"token owner did not approve TokenSales contract\");\n    tokenPrice[_tokenId] = _price;\n  }\n\n  //nft 매도 부분 취소 (토큰 price 0으로 초기화)\n  function removeTokenOnSaleEach(uint256 _tokenId) public {\n    require(_tokenId > 0, \"tokenId is null\");\n    address tokenSeller = nftAddress.ownerOf(_tokenId);\n    require(msg.sender == tokenSeller, \"caller is not token seller\");\n    tokenPrice[_tokenId] = 0;\n  }\n}\n",
  "sourcePath": "C:/Users/clari/Desktop/joy-contracts/contracts/TokenSales.sol",
  "compiler": {
    "name": "solc",
    "version": "0.5.8+commit.23d335f2.Emscripten.clang"
  },
  "schemaVersion": "3.0.13",
  "updatedAt": "2021-08-14T12:54:35.128Z",
  "devdoc": {
    "methods": {}
  },
  "userdoc": {
    "methods": {}
  }
}